:100000000C9445010C946D010C946D010C946D01E0
:100010000C946D010C946D010C946D010C946D01A8
:100020000C946D010C946D010C946D010C946D0198
:100030000C946D010C946D010C946D010C946D0188
:100040000C943B050C946D010C94B5060C940307BD
:100050000C946D010C946D010C946D010C946D0168
:100060000C946D010C946D010A0B0C0D0E0F111206
:1000700013141516000102030405CF01D501DB019D
:10008000E301EC01F601FF0106020E0215021C025B
:100090002302504120506F77657209203D2025537F
:1000A0000D0A00435243204C656E67746809203D79
:1000B0002025530D0A004D6F64656C0909203D2011
:1000C00025530D0A00446174612052617465092052
:1000D0003D2025530D0A0044594E50442F464541BA
:1000E0005455524500434F4E4649470052465F53D0
:1000F000455455500052465F434800454E5F5258A4
:100100004144445200454E5F41410052585F5057B0
:100110005F50302D360054585F41444452005258CD
:100120005F414444525F50322D350052585F414484
:1001300044525F50302D31000D0A002530327800D6
:10014000203078002553092563203D000D0A00204A
:10015000307825303278002553092563203D004F43
:100160004253455256455F54583D253032783A2027
:10017000504F4C535F434E543D2578204152435FCE
:10018000434E543D25780D0A0053544154555309AC
:1001900009203D203078253032782052585F445273
:1001A0003D25782054585F44533D2578204D4158D3
:1001B0005F52543D25782052585F505F4E4F3D2589
:1001C000782054585F46554C4C3D25780D0A003137
:1001D0004D42505300324D425053003235304B4265
:1001E0005053006E524632344C3031006E5246321B
:1001F000344C30312B0044697361626C65640038A3
:100200002062697473003136206269747300504152
:100210005F4D494E0050415F4C4F57004C415F4D80
:1002200045440050415F4849474800000000002411
:100230000027002A0000000000250028002B0000F5
:100240000000002300260029000404040404040420
:100250000402020202020203030303030301020475
:100260000810204080010204081020010204081038
:100270002000000007000201000003040600000047
:100280000000000000006F016F0811241FBECFEFB7
:10029000D8E0DEBFCDBF11E0A0E0B1E0E8E1F4E1DD
:1002A00002C005900D92A43AB107D9F712E0A4EA72
:1002B000B1E001C01D92A736B107E1F712E0CAE82C
:1002C000D2E004C02297FE010E94060AC638D10778
:1002D000C9F70E94C5080C940A0A0C94000084EA2D
:1002E00091E068E049E00E9409020895DF93CF930E
:1002F00000D000D0CDB7DEB784EA91E00E9424039D
:10030000882319F184EA91E0BE016F5F7F4F44E0DA
:100310000E946E0485E492E060E071E00E94B00902
:1003200085E492E06FE171E00E94AD0949815A8154
:100330006B817C8185E492E02AE030E00E949E0996
:1003400085E492E00E94FE0806C085E492E064E342
:1003500071E00E94B00968EE73E080E090E00E94D6
:1003600083050F900F900F900F90CF91DF9108951C
:10037000AF92BF92CF92DF92EF92FF920F931F93B3
:1003800084E061E00E94210684E061E00E94600652
:1003900055E4A52E52E0B52EC50140E659E060E0D7
:1003A00070E00E943E07C50164E671E00E94B0095A
:1003B00044EAC42E41E0D42EC6010E94B504C60111
:1003C0006FE04FE00E94E402C60161E032EDE32EEF
:1003D00020EFF22E00EF10EF20EF30E040E050E091
:1003E0000E94EF03C6010E947B04C50168E771E02B
:1003F0000E94B00968EE73E080E090E00E948305FF
:100400001F910F91FF90EF90DF90CF90BF90AF9032
:100410000895FC016083418381E08283138280E23E
:10042000848315821682108611861286138614869E
:100430001586168617860895FF920F931F938C01D9
:10044000F62E81E00E94050580E00E940E0580E006
:100450000E941305F80181816F2D0E9460061F9193
:100460000F91FF9008951F93CF93DF93EC0160E00D
:1004700070E00E941C028FEF8EBD0DB407FEFDCF11
:100480001EB5CE0161E070E00E941C02812FDF9159
:10049000CF911F9108951F93CF93DF93EC0160E0FC
:1004A00070E00E941C0281EE8EBD0DB407FEFDCFF0
:1004B0001EB5CE0161E070E00E941C02812FDF9129
:1004C000CF911F9108951F93CF93DF93EC0160E0CC
:1004D00070E00E941C0282EE8EBD0DB407FEFDCFBF
:1004E0001EB5CE0161E070E00E941C02812FDF91F9
:1004F000CF911F910895EF92FF920F931F93CF9387
:10050000DF93EC01F62EE72E9C81142F941708F44C
:10051000192F8E81882311F000E002C0092F011BE2
:10052000CE0160E070E00E941C0281E68EBD0DB439
:1005300007FEFDCF8F2D9E2D9C01F901FEB49FEF8C
:1005400007C09EBD0DB407FEFDCF8EB5819311503F
:100550001123B9F707C08EBD0DB407FEFDCF9EB5C0
:10056000015001C08FEF0023B1F7CE0161E070E0D0
:100570000E941C028F2DDF91CF911F910F91FF9050
:10058000EF9008950F931F93CF93DF93EC01162FF5
:10059000042F60E070E00E941C021F7110621EBDFB
:1005A0000DB407FEFDCF1EB50EBD0DB407FEFDCF89
:1005B0008EB5CE0161E070E00E941C02812FDF91B8
:1005C000CF911F910F910895262F4F702295207F74
:1005D000242B64E0422F0E94C2020895DF92EF9222
:1005E000FF920F931F93CF93DF938C017B010E94A7
:1005F0003302C82FD0E0CE01A6E096958795AA9544
:10060000E1F7DD24D394D82280FF15C0E114F10472
:1006100031F0CE01959587958770F7018083C801E9
:1006200067E040E40E94C202C5FF05C0C80167E060
:1006300040E20E94C2028D2DDF91CF911F910F9158
:10064000FF90EF90DF90089560E070E00E94EE026E
:100650000895462F603808F04FE765E00E94C20217
:100660000895EF92FF920F931F93CF93DF937C0136
:10067000162FEA01022F60E070E00E941C021F7139
:1006800010621EBD0DB407FEFDCF1EB508C08881E7
:100690008EBD0DB407FEFDCF21968EB5015000230F
:1006A000B1F7C70161E070E00E941C02812FDF9169
:1006B000CF911F910F91FF90EF9008951F93CF93CB
:1006C000DF93EC01162F60E070E00E941C021F71A6
:1006D0001EBD0DB407FEFDCF8EB58FEF8EBD0DB4E0
:1006E00007FEFDCF1EB5CE0161E070E00E941C0246
:1006F000812FDF91CF911F9108950F931F93CF9377
:10070000DF938C01EB0160E00E945E03482F437F82
:10071000209729F0219711F4486001C04C60C8016E
:1007200060E00E94C202DF91CF911F910F91089566
:10073000FF920F931F93CF93DF93EC018B0166E041
:100740000E945E031A82B7EDFB2EF82202301105DB
:1007500011F480E206C00130110529F481E08A839A
:1007600088E0F82A01C01A82CE0166E04F2D0E946F
:10077000C202CE0166E00E945E038F1511F481E093
:1007800002C01A8280E0DF91CF911F910F91FF90FC
:1007900008950F931F93CF93DF938C01EB0166E0D5
:1007A0000E945E03482F497FC330D10571F0C230EB
:1007B000D10511F444600AC0C130D10511F4426082
:1007C00005C0209719F0249709F44660C80166E037
:1007D0000E94C202DF91CF911F910F910895BF92A5
:1007E000CF92DF92EF92FF920F931F93DF93CF93FD
:1007F000CDB7DEB728970FB6F894DEBF0FBECDBFDA
:100800006C01B62EE982FA820B831C832D833E8312
:100810004F835887662389F4F601E0868A818187B1
:100820008B8182878C8183878D8184878E81858768
:100830008F8186878885878707C0F6E0F61708F4DA
:100840003DC081E0681761F4EB2DF0E0E859FF4FFF
:10085000E491C6016E2FAE014F5F5F4F25E00BC0E4
:10086000E62FF0E0E859FF4FE491C6016E2FAE018C
:100870004F5F5F4F21E00E9431030B2D10E0F80124
:10088000E259FF4FE491C6016E2FF60144810E94A8
:10089000C202C60162E00E945E030C581F4FF801BD
:1008A000649121E030E002C0220F331F6A95E2F725
:1008B000482F422BC60162E00E94C20228960FB662
:1008C000F894DEBF0FBECDBFCF91DF911F910F9186
:1008D000FF90EF90DF90CF90BF9008950F931F93FC
:1008E0008C010E947B02C80167E10E945E03817057
:1008F0001F910F910895CF93DF93EC0160E00E9468
:100900005E03482F4360CE0160E00E94C202CE0128
:1009100067E040E70E94C20288859985892B9A8505
:10092000892B9B85892B9C85892B9D85892B9E8571
:10093000892B9F85892B41F0AE01485F5F4FCE0127
:100940006AE025E00E943103CE010E946302CE01DD
:100950000E944B02888161E00E94600682E890E07C
:100960000E94DC05DF91CF910895CF93DF93EC01D6
:10097000888161E00E942106898161E00E94210650
:100980000E942405888160E00E946006CE0161E03B
:1009900070E00E941C0265E070E080E090E00E9440
:1009A0008305CE0164E04FE40E94C202CE0163E001
:1009B00070E00E94C903CE0162E070E00E949803DB
:1009C000882311F081E08B83CE0160E070E00E940B
:1009D0009803CE0162E070E00E947D03CE016CE1DD
:1009E00040E00E94C202CE0167E040E70E94C202DE
:1009F000CE016CE40E942903CE010E946302CE0165
:100A00000E944B02DF91CF910895882319F48CB591
:100A1000806202C08CB58F7D8CBD08959CB5937F9C
:100A2000982B9CBD08952CB5382F33702C7F322B1A
:100A30003CBD2DB590E095958795959587958170EE
:100A40002E7F822B8DBD08958AE061E00E946006B2
:100A50008AE061E00E9421068CB580618CBD8CB576
:100A600080648CBD8DE061E00E9421068BE061E036
:100A70000E94210608951F920F920FB60F92112423
:100A80002F933F938F939F93AF93BF938091B80120
:100A90009091B901A091BA01B091BB013091BC0114
:100AA0000196A11DB11D232F2D5F2D3720F02D574D
:100AB0000196A11DB11D2093BC018093B8019093B4
:100AC000B901A093BA01B093BB018091B401909198
:100AD000B501A091B601B091B7010196A11DB11D5C
:100AE0008093B4019093B501A093B601B093B70180
:100AF000BF91AF919F918F913F912F910F900FBE1A
:100B00000F901F9018959B01AC017FB7F8948091CE
:100B1000B4019091B501A091B601B091B70166B54D
:100B2000A89B05C06F3F19F00196A11DB11D7FBFA5
:100B3000BA2FA92F982F8827860F911DA11DB11DAF
:100B400062E0880F991FAA1FBB1F6A95D1F7BC01ED
:100B50002DC0FFB7F8948091B4019091B501A09198
:100B6000B601B091B701E6B5A89B05C0EF3F19F0FB
:100B70000196A11DB11DFFBFBA2FA92F982F88275D
:100B80008E0F911DA11DB11DE2E0880F991FAA1FB4
:100B9000BB1FEA95D1F7861B970B885E9340C8F27E
:100BA000215030404040504068517C4F2115310564
:100BB0004105510571F60895019739F0880F991F85
:100BC000880F991F02970197F1F70895789484B5DB
:100BD000826084BD84B5816084BD85B5826085BD39
:100BE00085B5816085BDEEE6F0E08081816080831F
:100BF000E1E8F0E010828081826080838081816002
:100C00008083E0E8F0E0808181608083E1EBF0E0C8
:100C1000808184608083E0EBF0E08081816080836C
:100C2000EAE7F0E080818460808380818260808355
:100C30008081816080838081806880831092C10080
:100C40000895CF93DF93482F50E0CA01835A9D4FF8
:100C5000FC013491475B5D4FFA018491882369F16F
:100C600090E0880F991FFC01E55DFD4FA591B491BF
:100C7000FC01EB5CFD4FC591D491662351F42FB775
:100C8000F8948C91932F909589238C938881892354
:100C90000BC0623061F42FB7F8948C91932F90952C
:100CA00089238C938881832B88832FBF06C09FB7AD
:100CB000F8948C91832B8C939FBFDF91CF910895F3
:100CC000482F50E0CA018F589D4FFC012491CA0162
:100CD000835A9D4FFC019491475B5D4FFA0134911B
:100CE000332309F440C0222351F1233071F0243022
:100CF00028F42130A1F0223011F514C02630B1F0D3
:100D00002730C1F02430D9F404C0809180008F775F
:100D100003C0809180008F7D8093800010C084B5D7
:100D20008F7702C084B58F7D84BD09C08091B000EB
:100D30008F7703C08091B0008F7D8093B000E32F48
:100D4000F0E0EE0FFF1FEB5CFD4FA591B4912FB7C4
:100D5000F894662321F48C919095892302C08C919C
:100D6000892B8C932FBF089508951F920F920FB671
:100D70000F9211242F933F934F938F939F93EF9351
:100D8000FF938091C00082FD1DC04091C60020915C
:100D9000FD013091FE012F5F3F4F2F733070809126
:100DA000FF01909100022817390771F0E091FD01D1
:100DB000F091FE01E354FE4F40833093FE012093F7
:100DC000FD0102C08091C600FF91EF919F918F912C
:100DD0004F913F912F910F900FBE0F901F9018953C
:100DE000E0915102F0915202E05CFF4F81919191AC
:100DF00020813181821B930B8F739070892B11F0AE
:100E00000E94B40608951F920F920FB60F921124FC
:100E10002F933F938F939F93EF93FF9320914102E2
:100E20003091420280914302909144022817390781
:100E300031F48091C1008F7D8093C10014C0E09196
:100E40004302F0914402EF5FFD4F20818091430205
:100E50009091440201968F73907090934402809316
:100E600043022093C600FF91EF919F918F913F9194
:100E70002F910F900FBE0F901F901895AF92BF92B9
:100E8000DF92EF92FF920F931F93CF93DF93EC01CA
:100E90007A018B01DD24403081EE580780E068073D
:100EA00080E0780711F0DD24D39491E0A92EB12CD5
:100EB000EC89FD89DD2069F0C50108A002C0880F1A
:100EC000991F0A94E2F7808360E079E08DE390E077
:100ED00005C0108260E874E88EE190E0A8019701F7
:100EE0000E94E209215030404040504056954795BD
:100EF0003795279580E12030380720F0DD2011F06C
:100F0000DD24D6CFE889F9893083EA89FB892083FB
:100F100019A2EE89FF89408121E030E0C9010C8CE3
:100F200002C0880F991F0A94E2F7482B4083EE898C
:100F3000FF894081C9010D8C02C0880F991F0A9456
:100F4000E2F7482B4083EE89FF894081C9010E8C6E
:100F500002C0880F991F0A94E2F7482B4083EE895C
:100F6000FF8980810F8C02C0220F331F0A94E2F7A1
:100F7000209528232083DF91CF911F910F91FF901F
:100F8000EF90DF90BF90AF900895DC011C96ED913B
:100F9000FC911D97E05CFF4F2191319180819181FF
:100FA000281B390B2F733070C9010895DC011C9682
:100FB000ED91FC911D97E05CFF4F20813181E05461
:100FC000F040DF01AE5BBF4F8D919C9111972817C8
:100FD000390719F42FEF3FEF07C08D919C91E80F6F
:100FE000F91F8081282F30E0C9010895DC011C968B
:100FF000ED91FC911D97E05CFF4F20813181E05421
:10100000F040DF01AE5BBF4F8D919C911197281787
:10101000390719F42FEF3FEF10C08D919C91119774
:10102000E80FF91F20818D919C91119701968F7384
:10103000907011969C938E9330E0C9010895DC0165
:1010400091968C919197882339F05496ED91FC916B
:101050005597808186FFF9CF91961C920895CF9382
:10106000DF93EC01EE85FF85E05CFF4F208131814D
:10107000E054F0402F5F3F4F2F733070DF01AE5BC5
:10108000BF4F8D919C91119728173907D1F3E05CE0
:10109000FF4F80819181E054F040E80FF91F608399
:1010A000EE85FF85E05CFF4F31832083EE89FF8969
:1010B000208181E090E00F8C02C0880F991F0A9474
:1010C000E2F7282B208381E089A3EC89FD898081C8
:1010D0008064808381E090E0DF91CF910895109249
:1010E00048021092470288EE93E0A0E0B0E08093BF
:1010F000490290934A02A0934B02B0934C0288E9B4
:1011000091E090934602809345028DEB91E090939D
:1011100052028093510281E092E0909354028093B6
:10112000530285EC90E0909356028093550284EC34
:1011300090E0909358028093570280EC90E0909357
:101140005A028093590281EC90E090935C02809364
:101150005B0282EC90E090935E0280935D0286ECED
:1011600090E09093600280935F0284E0809361023C
:1011700083E08093620287E08093630285E080933E
:10118000640281E0809365020895CF93DF930E940B
:10119000E6050E94B801C0EFD6E00E9476012097D4
:1011A000E1F30E94F006F9CFCF92DF92EF92FF9227
:1011B0000F931F93CF93DF937C016B018A01C0E0F3
:1011C000D0E00FC0D6016D916D01D701ED91FC917A
:1011D0000190F081E02DC7010995C80FD91F01507A
:1011E00010400115110571F7CE01DF91CF911F91CC
:1011F0000F91FF90EF90DF90CF900895EF92FF92C4
:101200000F931F938C01DC01ED91FC910190F08113
:10121000E02D6DE009957C01D801ED91FC910190E4
:10122000F081E02DC8016AE009959C012E0D3F1D5B
:10123000C9011F910F91FF90EF900895CF93DF9315
:10124000EC016115710519F420E030E00FC0DB01FD
:101250000D900020E9F71197A61BB70BE881F981E3
:101260000280F381E02DAD0109959C01C901DF9158
:10127000CF9108954F925F927F928F929F92AF92FB
:10128000BF92CF92DF92EF92FF920F931F93DF9363
:10129000CF93CDB7DEB7A1970FB6F894DEBF0FBEE0
:1012A000CDBF2C01742ECB01223008F42AE019A204
:1012B00031E2C32ED12CCC0EDD1E822E9924AA241D
:1012C000BB24672D752FA50194010E94E2097901C5
:1012D0008A01C801B701A50194010E94C309472DE5
:1012E000461B0894C108D1084A3014F4405D01C07F
:1012F000495CF6014083E114F1040105110521F078
:101300007E2C5F2DC801DDCFC201B6010E941E09EF
:10131000A1960FB6F894DEBF0FBECDBFCF91DF917F
:101320001F910F91FF90EF90DF90CF90BF90AF9003
:101330009F908F907F905F904F900895DC012115D2
:10134000310541F4ED91FC910190F081E02D642F85
:10135000099508950E943A0908950E941E0908956A
:10136000EF92FF920F931F937C010E941E098C0144
:10137000C7010E94FE08080F191FC8011F910F9195
:10138000FF90EF900895629FD001739FF001829FBC
:10139000E00DF11D649FE00DF11D929FF00D839F04
:1013A000F00D749FF00D659FF00D9927729FB00DA1
:1013B000E11DF91F639FB00DE11DF91FBD01CF01B4
:1013C00011240895A1E21A2EAA1BBB1BFD010DC01A
:1013D000AA1FBB1FEE1FFF1FA217B307E407F507E5
:1013E00020F0A21BB30BE40BF50B661F771F881FC1
:1013F000991F1A9469F760957095809590959B0157
:10140000AC01BD01CF010895EE0FFF1F0590F491CF
:08141000E02D0994F894FFCFD0
:10141800476F7420726571756573742066726F6D9D
:10142800206F6E6520636C69656E742E2E2E0052D7
:101438006573706F6E736520726563656976656440
:101448002E2E2E0077616974696E6720736F206194
:101458006E7920636C69656E74206D6179207265A0
:10146800717565737420746F20636F6E6E65637435
:101478002E2E2E00696E6974696174696E67207218
:101488006164696F2E2E2E006E6F77206C697374FD
:10149800656E696E6720746F20636C69656E74731E
:1014A8002E2E2E00000000002F08D408C507F607CE
:0414B800D6071F082C
:00000001FF
