:100000000C9463000C948B000C948B000C948B006C
:100010000C948B000C948B000C948B000C948B0034
:100020000C948B000C948B000C948B000C948B0024
:100030000C948B000C948B000C948B000C948B0014
:100040000C94C4020C948B000C9434040C94820421
:100050000C948B000C948B000C948B000C948B00F4
:100060000C948B000C948B000000000024002700EF
:100070002A0000000000250028002B0000000000DE
:1000800023002600290004040404040404040202DA
:100090000202020203030303030301020408102007
:1000A0004080010204081020010204081020000012
:1000B0000007000201000003040600000000000029
:1000C00000008E00EE0511241FBECFEFD8E0DEBF8A
:1000D000CDBF11E0A0E0B1E0EEE4FDE002C005908C
:1000E0000D92A031B107D9F711E0A0E1B1E001C054
:1000F0001D92A33DB107E1F710E0C6ECD0E004C0CB
:100100002297FE010E94A106C23CD107C9F70E94B6
:1001100044060C94A5060C940000089580E191E03B
:1001200068E049E00E94B70008950F931F9381EBA8
:1001300091E040E855E260E070E00E94BD0400E11B
:1001400011E0C8010E943E02C8016FE04FE00E942A
:100150003301C80101EE10EF20EF30EF40EF50E027
:1001600060E070E00E9472011F910F910895FC0100
:100170006083418381E08283138280E284831582DD
:1001800016821086118612861386148615861686A8
:1001900017860895FF920F931F938C01F62E81E02E
:1001A0000E948E0280E00E94970280E00E949C02E2
:1001B000F80181816F2D0E94DF031F910F91FF9045
:1001C00008951F93CF93DF93EC0160E070E00E94ED
:1001D000CA0081EE8EBD0DB407FEFDCF1EB5CE0167
:1001E00061E070E00E94CA00812FDF91CF911F91E2
:1001F00008951F93CF93DF93EC0160E070E00E94BD
:10020000CA0082EE8EBD0DB407FEFDCF1EB5CE0135
:1002100061E070E00E94CA00812FDF91CF911F91B1
:1002200008950F931F93CF93DF93EC01162F042FA4
:1002300060E070E00E94CA001F7110621EBD0DB424
:1002400007FEFDCF1EB50EBD0DB407FEFDCF8EB56A
:10025000CE0161E070E00E94CA00812FDF91CF9152
:100260001F910F910895262F4F702295207F242BE8
:1002700064E0422F0E9411010895462F603808F073
:100280004FE765E00E9411010895EF92FF920F93EE
:100290001F93CF93DF937C01162FEA01022F60E0BA
:1002A00070E00E94CA001F7110621EBD0DB407FEEF
:1002B000FDCF1EB508C088818EBD0DB407FEFDCFF1
:1002C00021968EB501500023B1F7C70161E070E0BF
:1002D0000E94CA00812FDF91CF911F910F91FF9053
:1002E000EF900895EF92FF920F931F93DF93CF93B8
:1002F000CDB7DEB728970FB6F894DEBF0FBECDBFDF
:100300007C0109831A832B833C834D835E836F8337
:1003100078878E010F5F1F4F6AE0A80125E00E94D9
:100320004501C70160E1A80125E00E944501F701F0
:100330004481413208F040E2C70161E10E941101AD
:1003400028960FB6F894DEBF0FBECDBFCF91DF91D8
:100350001F910F91FF90EF9008951F93CF93DF931C
:10036000EC01162F60E070E00E94CA001F711EBDF4
:100370000DB407FEFDCF8EB58FEF8EBD0DB407FE19
:10038000FDCF1EB5CE0161E070E00E94CA00812F52
:10039000DF91CF911F9108950F931F93CF93DF9318
:1003A0008C01EB0160E00E94AD01482F437F209754
:1003B00029F0219711F4486001C04C60C80160E049
:1003C0000E941101DF91CF911F910F910895FF922B
:1003D0000F931F93CF93DF93EC018B0166E00E9494
:1003E000AD011A82B7EDFB2EF8220230110511F48F
:1003F00080E206C00130110529F481E08A8388E09B
:10040000F82A01C01A82CE0166E04F2D0E94110128
:10041000CE0166E00E94AD018F1511F481E002C0AB
:100420001A8280E0DF91CF911F910F91FF90089584
:100430000F931F93CF93DF938C01EB0166E00E9433
:10044000AD01482F497FC330D10571F0C230D105CD
:1004500011F444600AC0C130D10511F4426005C0F6
:10046000209719F0249709F44660C80166E00E94BD
:100470001101DF91CF911F910F910895CF93DF93D9
:10048000EC01888161E00E94A003898161E00E9403
:10049000A0030E94AD02888160E00E94DF03CE01CC
:1004A00061E070E00E94CA0065E070E080E090E0EA
:1004B0000E940C03CE0164E04FE40E941101CE01C2
:1004C00063E070E00E941802CE0162E070E00E94DA
:1004D000E701882311F081E08B83CE0160E070E0BA
:1004E0000E94E701CE0162E070E00E94CC01CE01E3
:1004F0006CE140E00E941101CE0167E040E70E94FC
:100500001101CE016CE40E943D01CE010E94F90070
:10051000CE010E94E100DF91CF910895882319F464
:100520008CB5806202C08CB58F7D8CBD08959CB562
:10053000937F982B9CBD08952CB5382F33702C7F5A
:10054000322B3CBD2DB590E0959587959595879577
:1005500081702E7F822B8DBD08958AE061E00E941C
:10056000DF038AE061E00E94A0038CB580618CBD4E
:100570008CB580648CBD8DE061E00E94A0038BE0AF
:1005800061E00E94A00308951F920F920FB60F9290
:1005900011242F933F938F939F93AF93BF93809199
:1005A000240190912501A0912601B091270130915D
:1005B00028010196A11DB11D232F2D5F2D3720F09D
:1005C0002D570196A11DB11D209328018093240170
:1005D00090932501A0932601B093270180912001DB
:1005E00090912101A0912201B09123010196A11DBA
:1005F000B11D8093200190932101A0932201B0931B
:100600002301BF91AF919F918F913F912F910F90B7
:100610000FBE0F901F9018959B01AC017FB7F89407
:100620008091200190912101A0912201B09123019C
:1006300066B5A89B05C06F3F19F00196A11DB11DBD
:100640007FBFBA2FA92F982F8827860F911DA11D34
:10065000B11D62E0880F991FAA1FBB1F6A95D1F7D1
:10066000BC012DC0FFB7F894809120019091210129
:10067000A0912201B0912301E6B5A89B05C0EF3FF0
:1006800019F00196A11DB11DFFBFBA2FA92F982FF8
:1006900088278E0F911DA11DB11DE2E0880F991FC3
:1006A000AA1FBB1FEA95D1F7861B970B885E934064
:1006B000C8F2215030404040504068517C4F2115D5
:1006C00031054105510571F60895789484B582602D
:1006D00084BD84B5816084BD85B5826085BD85B5E6
:1006E000816085BDEEE6F0E0808181608083E1E895
:1006F000F0E01082808182608083808181608083CD
:10070000E0E8F0E0808181608083E1EBF0E08081CF
:1007100084608083E0EBF0E0808181608083EAE7A1
:10072000F0E080818460808380818260808380812A
:10073000816080838081806880831092C1000895E9
:10074000CF93DF93482F50E0CA0186569F4FFC019C
:1007500034914A575F4FFA018491882369F190E000
:10076000880F991FFC01E859FF4FA591B491FC0136
:10077000EE58FF4FC591D491662351F42FB7F894EA
:100780008C91932F909589238C93888189230BC01A
:10079000623061F42FB7F8948C91932F9095892350
:1007A0008C938881832B88832FBF06C09FB7F894D2
:1007B0008C91832B8C939FBFDF91CF910895482F0D
:1007C00050E0CA0182559F4FFC012491CA01865610
:1007D0009F4FFC0194914A575F4FFA0134913323A4
:1007E00009F440C0222351F1233071F0243028F461
:1007F0002130A1F0223011F514C02630B1F027309D
:10080000C1F02430D9F404C0809180008F7703C0F8
:10081000809180008F7D8093800010C084B58F7799
:1008200002C084B58F7D84BD09C08091B0008F77F0
:1008300003C08091B0008F7D8093B000E32FF0E083
:10084000EE0FFF1FEE58FF4FA591B4912FB7F8940C
:10085000662321F48C919095892302C08C91892B79
:100860008C932FBF089508951F920F920FB60F9289
:1008700011242F933F934F938F939F93EF93FF9365
:100880008091C00082FD1DC04091C6002091690189
:1008900030916A012F5F3F4F2F73307080916B0151
:1008A00090916C012817390771F0E0916901F0917E
:1008B0006A01E75DFE4F408330936A01209369012E
:1008C00002C08091C600FF91EF919F918F914F914F
:1008D0003F912F910F900FBE0F901F901895E091B0
:1008E000BD01F091BE01E05CFF4F819191912081AB
:1008F0003181821B930B8F739070892B11F00E94B2
:10090000330408951F920F920FB60F9211242F9364
:100910003F938F939F93EF93FF932091AD0130917D
:10092000AE018091AF019091B0012817390731F4E1
:100930008091C1008F7D8093C10014C0E091AF0110
:10094000F091B001E359FE4F20818091AF01909169
:10095000B00101968F7390709093B0018093AF01B6
:100960002093C600FF91EF919F918F913F912F911E
:100970000F900FBE0F901F901895AF92BF92DF920D
:10098000EF92FF920F931F93CF93DF93EC017A01C5
:100990008B01DD24403081EE580780E0680780E05D
:1009A000780711F0DD24D39491E0A92EB12CEC89C5
:1009B000FD89DD2069F0C50108A002C0880F991FDC
:1009C0000A94E2F7808360E079E08DE390E005C06F
:1009D000108260E874E88EE190E0A80197010E941F
:1009E0007D06215030404040504056954795379500
:1009F000279580E12030380720F0DD2011F0DD243C
:100A0000D6CFE889F9893083EA89FB89208319A246
:100A1000EE89FF89408121E030E0C9010C8C02C0E1
:100A2000880F991F0A94E2F7482B4083EE89FF89CB
:100A30004081C9010D8C02C0880F991F0A94E2F70A
:100A4000482B4083EE89FF894081C9010E8C02C08A
:100A5000880F991F0A94E2F7482B4083EE89FF899B
:100A600080810F8C02C0220F331F0A94E2F7209579
:100A700028232083DF91CF911F910F91FF90EF905A
:100A8000DF90BF90AF900895DC011C96ED91FC9132
:100A90001D97E05CFF4F2191319180819181281B4E
:100AA000390B2F733070C9010895DC011C96ED914C
:100AB000FC911D97E05CFF4F20813181E054F040B4
:100AC000DF01AE5BBF4F8D919C91119728173907BD
:100AD00019F42FEF3FEF07C08D919C91E80FF91F9C
:100AE0008081282F30E0C9010895DC011C96ED912A
:100AF000FC911D97E05CFF4F20813181E054F04074
:100B0000DF01AE5BBF4F8D919C911197281739077C
:100B100019F42FEF3FEF10C08D919C911197E80FC2
:100B2000F91F20818D919C91119701968F73907080
:100B300011969C938E9330E0C9010895DC01919643
:100B40008C919197882339F05496ED91FC915597AB
:100B5000808186FFF9CF91961C920895CF93DF9301
:100B6000EC01EE85FF85E05CFF4F20813181E05490
:100B7000F0402F5F3F4F2F733070DF01AE5BBF4FF0
:100B80008D919C91119728173907D1F3E05CFF4FA5
:100B900080819181E054F040E80FF91F6083EE8579
:100BA000FF85E05CFF4F31832083EE89FF89208140
:100BB00081E090E00F8C02C0880F991F0A94E2F741
:100BC000282B208381E089A3EC89FD8980818064C2
:100BD000808381E090E0DF91CF9108951092B4017D
:100BE0001092B30188EE93E0A0E0B0E08093B501ED
:100BF0009093B601A093B701B093B80184E091E05F
:100C00009093B2018093B10189E291E09093BE018B
:100C10008093BD018DE691E09093C0018093BF0168
:100C200085EC90E09093C2018093C10184EC90E048
:100C30009093C4018093C30180EC90E09093C6012F
:100C40008093C50181EC90E09093C8018093C70127
:100C500082EC90E09093CA018093C90186EC90E009
:100C60009093CC018093CB0184E08093CD0183E00D
:100C70008093CE0187E08093CF0185E08093D001FF
:100C800081E08093D1010895CF93DF930E946503A3
:100C90000E949500CFE6D4E00E948D002097E1F3FA
:100CA0000E946F04F9CFCF92DF92EF92FF920F93E1
:100CB0001F93CF93DF937C016B018A01C0E0D0E0EA
:100CC0000FC0D6016D916D01D701ED91FC9101909E
:100CD000F081E02DC7010995C80FD91F01501040C0
:100CE0000115110571F7CE01DF91CF911F910F9181
:100CF000FF90EF90DF90CF900895A1E21A2EAA1BEB
:100D0000BB1BFD010DC0AA1FBB1FEE1FFF1FA217BB
:100D1000B307E407F50720F0A21BB30BE40BF50BB8
:100D2000661F771F881F991F1A9469F76095709541
:100D3000809590959B01AC01BD01CF010895EE0F08
:0E0D4000FF1F0590F491E02D0994F894FFCF69
:100D4E0000000000AE0553064405750555059E05C9
:00000001FF
