:100000000C9448010C9470010C9470010C947001D4
:100010000C9470010C9470010C9470010C9470019C
:100020000C9470010C9470010C9470010C9470018C
:100030000C9470010C9470010C9470010C9470017C
:100040000C942A050C9470010C94B0060C94FE06D6
:100050000C9470010C9470010C9470010C9470015C
:100060000C9470010C9470010A0B0C0D0E0F111200
:1000700013141516000102030405CF01D501DB019D
:10008000E301EC01F601FF0106020E0215021C025B
:100090002302504120506F77657209203D2025537F
:1000A0000D0A00435243204C656E67746809203D79
:1000B0002025530D0A004D6F64656C0909203D2011
:1000C00025530D0A00446174612052617465092052
:1000D0003D2025530D0A0044594E50442F464541BA
:1000E0005455524500434F4E4649470052465F53D0
:1000F000455455500052465F434800454E5F5258A4
:100100004144445200454E5F41410052585F5057B0
:100110005F50302D360054585F41444452005258CD
:100120005F414444525F50322D350052585F414484
:1001300044525F50302D31000D0A002530327800D6
:10014000203078002553092563203D000D0A00204A
:10015000307825303278002553092563203D004F43
:100160004253455256455F54583D253032783A2027
:10017000504F4C535F434E543D2578204152435FCE
:10018000434E543D25780D0A0053544154555309AC
:1001900009203D203078253032782052585F445273
:1001A0003D25782054585F44533D2578204D4158D3
:1001B0005F52543D25782052585F505F4E4F3D2589
:1001C000782054585F46554C4C3D25780D0A003137
:1001D0004D42505300324D425053003235304B4265
:1001E0005053006E524632344C3031006E5246321B
:1001F000344C30312B0044697361626C65640038A3
:100200002062697473003136206269747300504152
:100210005F4D494E0050415F4C4F57004C415F4D80
:1002200045440050415F4849474800000000002411
:100230000027002A0000000000250028002B0000F5
:100240000000002300260029000404040404040420
:100250000402020202020203030303030302020177
:10026000020408102040800102040810200102044A
:100270000810204080000000070002010000030475
:10028000060000000000000000000000720161088C
:1002900011241FBECFEFD8E0DEBFCDBF11E0A0E03C
:1002A000B1E0E4E8F4E102C005900D92A235B10797
:1002B000D9F712E0A2E5B1E001C01D92A931B10762
:1002C000E1F712E0C0E9D2E004C02297FE010E94EB
:1002D0003C0ACC38D107C9F70E94B7080C94400AF1
:1002E0000C94000082E591E068E049E00E94F8018A
:1002F000089582E591E00E941303882331F182E59D
:1003000091E062E671E044E00E945D046091620168
:100310007091630187EF91E04AE050E00E94D009BC
:1003200087EF91E060E071E00E94E3096091640171
:100330007091650187EF91E04AE050E00E94D0099A
:1003400087EF91E00E94F00806C087EF91E062E03D
:1003500071E00E94E60968EE73E080E090E00E94A0
:100360007E050895CF92DF92EF92FF920F931F9335
:1003700084E061E00E941C0684E061E00E945B066C
:1003800007EF11E0C80140E855E260E070E00E942C
:100390003907C80162E371E00E94E60942E5C42E14
:1003A00041E0D42EC6010E94A404C6016FE04FE0D4
:1003B0000E94D302C60161E032EDE32E20EFF22E5F
:1003C00000EF10EF20EF30E040E050E00E94DE034D
:1003D000C6010E946A0468EE73E080E090E00E942B
:1003E0007E051F910F91FF90EF90DF90CF900895C1
:1003F000FC016083418381E08283138280E28483F5
:10040000158216821086118612861386148615862A
:10041000168617860895FF920F931F938C01F62E70
:1004200081E00E94F40480E00E94FD0480E00E94CC
:100430000205F80181816F2D0E945B061F910F91CB
:10044000FF9008951F93CF93DF93EC0160E070E07D
:100450000E940B028FEF8EBD0DB407FEFDCF1EB5BF
:10046000CE0161E070E00E940B02812FDF91CF91FD
:100470001F9108951F93CF93DF93EC0160E070E02C
:100480000E940B0281EE8EBD0DB407FEFDCF1EB59E
:10049000CE0161E070E00E940B02812FDF91CF91CD
:1004A0001F9108951F93CF93DF93EC0160E070E0FC
:1004B0000E940B0282EE8EBD0DB407FEFDCF1EB56D
:1004C000CE0161E070E00E940B02812FDF91CF919D
:1004D0001F910895EF92FF920F931F93CF93DF9395
:1004E000EC01F62EE72E9C81142F941708F4192F97
:1004F0008E81882311F000E002C0092F011BCE017C
:1005000060E070E00E940B0281E68EBD0DB407FE34
:10051000FDCF8F2D9E2D9C01F901FEB49FEF07C0EA
:100520009EBD0DB407FEFDCF8EB5819311501123F2
:10053000B9F707C08EBD0DB407FEFDCF9EB50150C3
:1005400001C08FEF0023B1F7CE0161E070E00E949F
:100550000B028F2DDF91CF911F910F91FF90EF90A4
:1005600008950F931F93CF93DF93EC01162F042F61
:1005700060E070E00E940B021F7110621EBD0DB49E
:1005800007FEFDCF1EB50EBD0DB407FEFDCF8EB527
:10059000CE0161E070E00E940B02812FDF91CF91CC
:1005A0001F910F910895262F4F702295207F242BA5
:1005B00064E0422F0E94B1020895DF92EF92FF9211
:1005C0000F931F93CF93DF938C017B010E94220234
:1005D000C82FD0E0CE01A6E096958795AA95E1F7C1
:1005E000DD24D394D82280FF15C0E114F10431F04A
:1005F000CE01959587958770F7018083C80167E0E4
:1006000040E40E94B102C5FF05C0C80167E040E2B6
:100610000E94B1028D2DDF91CF911F910F91FF901C
:10062000EF90DF90089560E070E00E94DD02089591
:10063000462F603808F04FE765E00E94B102089548
:10064000EF92FF920F931F93CF93DF937C01162FAE
:10065000EA01022F60E070E00E940B021F7110623D
:100660001EBD0DB407FEFDCF1EB508C088818EBD2E
:100670000DB407FEFDCF21968EB501500023B1F7D2
:10068000C70161E070E00E940B02812FDF91CF91E2
:100690001F910F91FF90EF9008951F93CF93DF93D9
:1006A000EC01162F60E070E00E940B021F711EBD6E
:1006B0000DB407FEFDCF8EB58FEF8EBD0DB407FED6
:1006C000FDCF1EB5CE0161E070E00E940B02812FCC
:1006D000DF91CF911F9108950F931F93CF93DF93D5
:1006E0008C01EB0160E00E944D03482F437F20976F
:1006F00029F0219711F4486001C04C60C80160E006
:100700000E94B102DF91CF911F910F910895FF9246
:100710000F931F93CF93DF93EC018B0166E00E9450
:100720004D031A82B7EDFB2EF8220230110511F4A9
:1007300080E206C00130110529F481E08A8388E057
:10074000F82A01C01A82CE0166E04F2D0E94B10244
:10075000CE0166E00E944D038F1511F481E002C0C6
:100760001A8280E0DF91CF911F910F91FF90089541
:100770000F931F93CF93DF938C01EB0166E00E94F0
:100780004D03482F497FC330D10571F0C230D105E8
:1007900011F444600AC0C130D10511F4426005C0B3
:1007A000209719F0249709F44660C80166E00E947A
:1007B000B102DF91CF911F910F910895BF92CF9217
:1007C000DF92EF92FF920F931F93DF93CF93CDB7FA
:1007D000DEB728970FB6F894DEBF0FBECDBF6C0111
:1007E000B62EE982FA820B831C832D833E834F83CE
:1007F0005887662389F4F601E0868A8181878B8198
:1008000082878C8183878D8184878E8185878F8184
:1008100086878885878707C0F6E0F61708F43DC00D
:1008200081E0681761F4EB2DF0E0E859FF4FE491A7
:10083000C6016E2FAE014F5F5F4F25E00BC0E62F64
:10084000F0E0E859FF4FE491C6016E2FAE014F5F13
:100850005F4F21E00E9420030B2D10E0F801E259C8
:10086000FF4FE491C6016E2FF60144810E94B10250
:10087000C60162E00E944D030C581F4FF8016491BD
:1008800021E030E002C0220F331F6A95E2F7482FC3
:10089000422BC60162E00E94B10228960FB6F8947E
:1008A000DEBF0FBECDBFCF91DF911F910F91FF90A3
:1008B000EF90DF90CF90BF9008950F931F938C011E
:1008C0000E946A02C80167E10E944D0381701F9176
:1008D0000F910895CF93DF93EC0160E00E944D03E8
:1008E000482F4360CE0160E00E94B102CE0167E074
:1008F00040E70E94B10288859985892B9A85892BCA
:100900009B85892B9C85892B9D85892B9E85892B91
:100910009F85892B41F0AE01485F5F4FCE016AE0B1
:1009200025E00E942003CE010E945202CE010E94C7
:100930003A02888161E00E945B0682E890E00E94B2
:10094000D705DF91CF910895CF93DF93EC01888194
:1009500061E00E941C06898161E00E941C060E94E1
:100960001305888160E00E945B06CE0161E070E0C3
:100970000E940B0265E070E080E090E00E947E053E
:10098000CE0164E04FE40E94B102CE0163E070E06A
:100990000E94B803CE0162E070E00E9487038823C2
:1009A00011F081E08B83CE0160E070E00E9487034C
:1009B000CE0162E070E00E946C03CE016CE140E089
:1009C0000E94B102CE0167E040E70E94B102CE0171
:1009D0006CE40E941803CE010E945202CE010E94D4
:1009E0003A02DF91CF910895882319F48CB5806283
:1009F00002C08CB58F7D8CBD08959CB5937F982BDC
:100A00009CBD08952CB5382F33702C7F322B3CBD04
:100A10002DB590E0959587959595879581702E7F5A
:100A2000822B8DBD08958AE061E00E945B068AE01A
:100A300061E00E941C068CB580618CBD8CB5806421
:100A40008CBD8DE061E00E941C068BE061E00E949D
:100A50001C0608951F920F920FB60F9211242F9328
:100A60003F934F935F936F937F938F939F93AF9336
:100A7000BF9320916A0130916B0140916C015091BC
:100A80006D0170916E01DA01C9010296A11DB11DBF
:100A9000672F6A5F6D3730F06D57DA01C901039631
:100AA000A11DB11D60936E0180936A0190936B014B
:100AB000A0936C01B0936D018091660190916701E4
:100AC000A0916801B09169010196A11DB11D8093AB
:100AD000660190936701A0936801B0936901BF918B
:100AE000AF919F918F917F916F915F914F913F91C6
:100AF0002F910F900FBE0F901F9018959B01AC0186
:100B00007FB7F8948091660190916701A091680188
:100B1000B091690166B5A89B05C06F3F19F00196B9
:100B2000A11DB11D7FBFBA2FA92F982F8827860F2F
:100B3000911DA11DB11D63E0880F991FAA1FBB1F46
:100B40006A95D1F7BC012DC0FFB7F894809166017A
:100B500090916701A0916801B0916901E6B5A89BE9
:100B600005C0EF3F19F00196A11DB11DFFBFBA2FBF
:100B7000A92F982F88278E0F911DA11DB11DE3E08D
:100B8000880F991FAA1FBB1FEA95D1F7861B970BE9
:100B9000885E9340C8F22150304040405040685138
:100BA0007C4F211531054105510571F608950197D6
:100BB00039F0019729F0880F991F01970197F1F7F4
:100BC0000895789484B5826084BD84B5816084BDC5
:100BD00085B5826085BD85B5816085BDEEE6F0E0B6
:100BE000808181608083E1E8F0E010828081826012
:100BF0008083808181608083E0E8F0E08081816093
:100C00008083E1EBF0E0808184608083E0EBF0E0C2
:100C1000808181608083EAE7F0E080818460808366
:100C20008081826080838081816080838081806810
:100C300080831092C1000895CF93DF93482F50E036
:100C4000CA01815A9D4FFC013491475B5D4FFA0107
:100C50008491882369F190E0880F991FFC01E55D7C
:100C6000FD4FA591B491FC01EB5CFD4FC591D49172
:100C7000662351F42FB7F8948C91932F9095892384
:100C80008C93888189230BC0623061F42FB7F8946C
:100C90008C91932F909589238C938881832B8883C3
:100CA0002FBF06C09FB7F8948C91832B8C939FBF66
:100CB000DF91CF910895482F50E0CA018B589D4F86
:100CC000FC012491CA01815A9D4FFC019491475B1C
:100CD0005D4FFA013491332309F440C0222351F1CE
:100CE000233071F0243028F42130A1F0223011F5A6
:100CF00014C02630B1F02730C1F02430D9F404C03C
:100D0000809180008F7703C0809180008F7D8093D9
:100D1000800010C084B58F7702C084B58F7D84BDFC
:100D200009C08091B0008F7703C08091B0008F7DA3
:100D30008093B000E32FF0E0EE0FFF1FEB5CFD4F60
:100D4000A591B4912FB7F894662321F48C919095D6
:100D5000892302C08C91892B8C932FBF089508950D
:100D60001F920F920FB60F9211242F933F934F9320
:100D70008F939F93EF93FF938091C00082FD1DC0DE
:100D80004091C6002091AF013091B0012F5F3F4FDD
:100D90002F7330708091B1019091B20128173907FB
:100DA00071F0E091AF01F091B001E159FE4F408345
:100DB0003093B0012093AF0102C08091C600FF9133
:100DC000EF919F918F914F913F912F910F900FBE77
:100DD0000F901F901895E0910302F0910402E05CDF
:100DE000FF4F8191919120813181821B930B8F73F1
:100DF0009070892B11F00E94AF0608951F920F92F8
:100E00000FB60F9211242F933F938F939F93EF93DD
:100E1000FF932091F3013091F4018091F5019091BD
:100E2000F6012817390731F48091C1008F7D809336
:100E3000C10014C0E091F501F091F601ED54FE4FB0
:100E400020818091F5019091F60101968F73907049
:100E50009093F6018093F5012093C600FF91EF91E6
:100E60009F918F913F912F910F900FBE0F901F90E8
:100E70001895AF92BF92DF92EF92FF920F931F935C
:100E8000CF93DF93EC017A018B01DD24D39491E0C1
:100E9000A92EB12CEC89FD89DD2069F0C50108A0DF
:100EA00002C0880F991F0A94E2F7808360E874E813
:100EB0008EE190E005C0108260E472E48FE090E083
:100EC000A80197010E94180A21503040404050402C
:100ED000569547953795279580E12030380720F0C3
:100EE000DD2011F0DD24D6CFE889F9893083EA8945
:100EF000FB89208319A2EE89FF89408121E030E03F
:100F0000C9010C8C02C0880F991F0A94E2F7482B84
:100F10004083EE89FF894081C9010D8C02C0880F92
:100F2000991F0A94E2F7482B4083EE89FF8940819C
:100F3000C9010E8C02C0880F991F0A94E2F7482B52
:100F40004083EE89FF8980810F8C02C0220F331FFE
:100F50000A94E2F7209528232083DF91CF911F91F7
:100F60000F91FF90EF90DF90BF90AF900895DC015C
:100F70001C96ED91FC911D97E05CFF4F2191319102
:100F800080819181281B390B2F733070C90108951E
:100F9000DC011C96ED91FC911D97E05CFF4F2081D8
:100FA0003181E054F040DF01AE5BBF4F8D919C91E9
:100FB00011972817390719F42FEF3FEF07C08D91CC
:100FC0009C91E80FF91F8081282F30E0C901089516
:100FD000DC011C96ED91FC911D97E05CFF4F208198
:100FE0003181E054F040DF01AE5BBF4F8D919C91A9
:100FF00011972817390719F42FEF3FEF10C08D9183
:101000009C911197E80FF91F20818D919C91119768
:1010100001968F73907011969C938E9330E0C90166
:101020000895DC0191968C919197882339F054961C
:10103000ED91FC915597808186FFF9CF91961C9296
:101040000895CF93DF93EC01EE85FF85E05CFF4FC1
:1010500020813181E054F0402F5F3F4F2F7330707B
:10106000DF01AE5BBF4F8D919C9111972817390717
:10107000D1F3E05CFF4F80819181E054F040E80FB4
:10108000F91F6083EE85FF85E05CFF4F318320838D
:10109000EE89FF89208181E090E00F8C02C0880FEB
:1010A000991F0A94E2F7282B208381E089A3EC8919
:1010B000FD8980818064808381E090E0DF91CF9121
:1010C00008951092FA011092F90188EE93E0A0E0E1
:1010D000B0E08093FB019093FC01A093FD01B093DD
:1010E000FE0186E491E09093F8018093F7018FE68A
:1010F00091E0909304028093030283EB91E090933C
:1011000006028093050285EC90E09093080280939C
:10111000070284EC90E090930A028093090280EC2D
:1011200090E090930C0280930B0281EC90E09093FE
:101130000E0280930D0282EC90E090931002809357
:101140000F0286EC90E0909312028093110284E0EB
:101150008093130283E08093140287E0809315024A
:1011600085E08093160281E0809317020895CF9363
:10117000DF930E94E1050E94B201CBEED6E00E940F
:1011800079012097E1F30E94EB06F9CFCF92DF922D
:10119000EF92FF920F931F93CF93DF937C016B012C
:1011A0008A01C0E0D0E00FC0D6016D916D01D7017A
:1011B000ED91FC910190F081E02DC7010995C80FD8
:1011C000D91F015010400115110571F7CE01DF91B3
:1011D000CF911F910F91FF90EF90DF90CF900895E6
:1011E000EF92FF920F931F938C01DC01ED91FC9124
:1011F0000190F081E02D6DE009957C01D801ED9121
:10120000FC910190F081E02DC8016AE009959C01F4
:101210002E0D3F1DC9011F910F91FF90EF90089572
:10122000CF93DF93EC016115710519F420E030E0F4
:101230000FC0DB010D900020E9F71197A61BB70B3B
:10124000E881F9810280F381E02DAD0109959C01CF
:10125000C901DF91CF9108954F925F927F928F9253
:101260009F92AF92BF92CF92DF92EF92FF920F9335
:101270001F93DF93CF93CDB7DEB7A1970FB6F89446
:10128000DEBF0FBECDBF2C01742ECB01223008F47F
:101290002AE019A231E2C32ED12CCC0EDD1E822E03
:1012A0009924AA24BB24672D752FA50194010E94BF
:1012B000180A79018A01C801B701A50194010E94A9
:1012C000F909472D461B0894C108D1084A3014F487
:1012D000405D01C0495CF6014083E114F104010561
:1012E000110521F07E2C5F2DC801DDCFC201B601B2
:1012F0000E941009A1960FB6F894DEBF0FBECDBFB5
:10130000CF91DF911F910F91FF90EF90DF90CF90E1
:10131000BF90AF909F908F907F905F904F90089577
:10132000CF92DF92EF92FF920F931F93CF93DF93B1
:10133000EC016A017B012115310541F4E881F98155
:101340000190F081E02D642F09951FC02A303105EE
:10135000D1F477FF17C0E881F9810190F081E02D89
:101360006DE209958C0144275527BA014C195D0996
:101370006E097F09CE012AE00E942C099801280FEE
:10138000391F04C02AE00E942C099C01C901DF9189
:10139000CF911F910F91FF90EF90DF90CF90089524
:1013A000EF92FF920F931F937B019A010027F7FCA6
:1013B0000095102FB801A7010E9490091F910F916D
:1013C000FF90EF9008950E9410090895EF92FF9208
:1013D0000F931F937C010E9410098C01C7010E948A
:1013E000F008080F191FC8011F910F91FF90EF908F
:1013F0000895629FD001739FF001829FE00DF11D5F
:10140000649FE00DF11D929FF00D839FF00D749F7E
:10141000F00D659FF00D9927729FB00DE11DF91F2A
:10142000639FB00DE11DF91FBD01CF011124089587
:10143000A1E21A2EAA1BBB1BFD010DC0AA1FBB1FD8
:10144000EE1FFF1FA217B307E407F50720F0A21B4A
:10145000B30BE40BF50B661F771F881F991F1A94B7
:1014600069F760957095809590959B01AC01BD01E1
:10147000CF010895EE0FFF1F0590F491E02D099420
:04148000F894FFCF0E
:101484002C0077616974696E6720736F20616E79CF
:1014940020636C69656E74206D6179207265717565
:1014A40065737420746F20636F6E6E6563742E2E83
:1014B4002E006D6173746572207374617274656457
:1014C4002E00000000002108C608B707E807C80777
:0214D4001108FD
:00000001FF
